:020000040000FA
:100000000203370218034100C4002202180B222207
:0100100022CD
:07001300021813E4FFA10E27
:07001B0002181B75C8012249
:030023000218239D
:03002B0002182B8D
:030033000218337D
:03003B0002183B6D
:030043000218435D
:03004B0002184B4D
:030053000218533D
:03005B0002185B2D
:030063000218631D
:03006B0002186B0D
:10007300021873BB010689828A83E0225002E722B9
:10008300BBFE02E32289828A83E49322BB010CE54F
:100093008229F582E5833AF583E0225006E9258239
:1000A300F8E622BBFE06E92582F8E222E58229F57D
:1000B30082E5833AF583E49322BB010689828A832E
:1000C300F0225002F722BBFE01F322F8BB010DE53B
:1000D3008229F582E5833AF583E8F0225006E92583
:1000E30082C8F622BBFE05E92582C8F222C5F0F8D4
:1000F300A3E028F0C5F0F8E582158270021583E0CD
:1001030038F022A3F8E0C5F025F0F0E582158270FF
:10011300021583E0C838F0E822BB010A89828A838A
:10012300E0F5F0A3E022500687F009E71922BBFEB1
:1001330007E3F5F009E3192289828A83E493F5F052
:1001430074019322BB010A89828A83F0E5F0A3F04C
:10015300225006F709A7F01922BBFE06F3E5F009C2
:10016300F31922EF2BFFEE3AFEED39FDEC38FC22BA
:10017300C3EF9BFFEE9AFEED99FDEC98FC2275F020
:1001830008758200EF2FFFEE33FECD33CDCC33CC99
:10019300C58233C5829BED9AEC99E58298400CF5B4
:1001A30082EE9BFEED9AFDEC99FC0FD5F0D6E4CEE2
:1001B300FBE4CDFAE4CCF9A88222B800C1B9005916
:1001C300BA002DEC8BF084CFCECDFCE5F0CBF978E3
:1001D30018EF2FFFEE33FEED33FDEC33FCEB33FB77
:1001E30010D703994004EB99FB0FD8E5E4F9FA2201
:1001F3007818EF2FFFEE33FEED33FDEC33FCC933FC
:10020300C910D7059BE99A4007EC9BFCE99AF90FC3
:10021300D8E0E4C9FAE4CCFB2275F010EF2FFFEE2F
:1002230033FEED33FDCC33CCC833C810D7079BEC7A
:100233009AE899400AED9BFDEC9AFCE899F80FD5F2
:10024300F0DAE4CDFBE4CCFAE4C8F922EF5BFFEE8D
:100253005AFEED59FDEC58FC22EB9FF5F0EA9E4265
:10026300F0E99D42F0E89C45F022E8600FECC313EF
:10027300FCED13FDEE13FEEF13FFD8F122E8600F40
:10028300EFC333FFEE33FEED33FDEC33FCD8F12245
:10029300E0FCA3E0FDA3E0FEA3E0FF22E0F8A3E07F
:1002A300F9A3E0FAA3E0FB22ECF0A3EDF0A3EEF058
:1002B300A3EFF022A8828583F0D083D0821202CEEE
:1002C3001202CE1202CE1202CEE473E493A3C583CC
:1002D300C5F0C583C8C582C8F0A3C583C5F0C5836F
:1002E300C8C582C822E0FBA3E0FAA3E0F922F8E044
:1002F300FBA3A3E0F925F0F0E582158270021583D4
:10030300E0FA38F022EBF0A3EAF0A3E9F022D0837D
:10031300D082F8E4937012740193700DA3A393F841
:10032300740193F5828883E4737402936860EFA386
:10033300A3A380DF75814B02079BAEFFEE54CFFE74
:10034300EFC454F024804EF5FF2290091151AB9075
:1003530009115193B1A1900915E06F6034110F9108
:1003630002EF6004111080F7B11AB1DB9000BAE01C
:10037300FF91E6600990091151937810719A9009E1
:1003830011719690091191EF900915E0FFB108D30F
:1003930022C32251937808516DE4E5C820E2FB8F14
:1003A300EB229000D151AB9000D57108110F91024F
:1003B300EF6004111080F7B11AB1DB9000BAE0FFCF
:1003C30091E660099000D151937810719A9000D111
:1003D30071969000D15193E4801B9000D8D1BB60FB
:1003E300189000D551E8EA494B60089000D5120EE9
:1003F300438001E4FF719D80E1B126E4FFA10E7FFC
:1004030001B10E30021491D8915290092AEFF0B144
:100413002690092AE020E002C2023002179141909F
:1004230000B8EF91F4600BA3E0F46006EF30E7024D
:10043300C202B126E4FFB10EA202E433FF22B1DB14
:100443007FD7719D7FFF719D91569000B7EFF07F2D
:10045300FF719DE5C820E2FBAFEB227F01B10E9057
:1004630009287401F0900928E0602E91D8915290E8
:100473000928EFF0B12691419000B8EFF0B1269032
:100483000928E0540191F460DCA3E0F460D7EF3075
:10049300E7D3E4900928F080CCB1DB7F9F719D9175
:1004A300529000B991509000BE91509000BFEFF070
:1004B300B10A9000B7E0F4601BA3E0F4601690006B
:1004C300BEE0FD541F240FA3F0EDC4135407448072
:1004D3009000BEF022B1DB7F05619D7F01B10EB1BB
:1004E300DB7F03719D9000BDE06402225193E461C0
:0904F3009DF09000B7E0FFF42237
:10050800719DB126E4FFEFB4010443FE202253FE9F
:10051800DF227F01B10ED202B1DB7F06719D12147A
:100528000AEF70FA9000BEE0F4600A90092774069A
:10053800F0F17D70FC9000BCE07111055F04056767
:1005480014056C15057117058130058634058B3641
:1005580005903700000579434610854680802F4373
:100568004710800843472080034347808547908091
:100578001D4348208548A08015434901800D434903
:1005880010800843494080034349808549B0900959
:1005980027740CF0F17D70FC2290090C51AB110FFF
:1005A8009102EF6004111080F791DE600990090C48
:1005B80051937810719A90090C719690090C91EFEB
:1005C8009152900910EFF0B10A900910E0FF227FD4
:1005D80001B10E9000BCE0711105FD04060514067A
:1005E8000A15060F17061F30062434062936062E6C
:1005F80037000006175346EF854680802F5347EF94
:1006080080085347DF800353477F854790801D53F9
:1006180048DF8548A080155349FE800D5349EF8077
:10062800085349BF800353497F8549B07F0CDFFEDB
:1006380022110F9102EF6004111080F7B11AB1DB9B
:100648007F01719D7F03719DB126E4FFA10E90008B
:10065800DA51AB9000DE7108110F9102EF600411BE
:100668001080F791DE60099000DA51937810719A42
:100678009000DA71969000DA91EF9000E1D1BB60BA
:100688001291529000DE51E8EF11BC9000DF121277
:10069800FE80E7B126E4FFA10E9000B7E020E0124B
:1006A800B1D77F3D719D7F2A719D7F80719D7FA607
:1006B800B1082274FFF5F0310645F022900929EFC0
:1006C800F09000C5E064027022B1D7900929E07F5C
:1006D800AB60027FB9719DB126900929E09000C4F2
:1006E800F070047F1EDFFEE4FFB10E22900000EEE2
:0806F800F0A3EFF0A351939071
:10070000000851AB900006E0FFA3E090000CCF8002
:100710005D90000C1212F7605BC3EF9440EE940002
:100720004006A37440F0800590000EEFF0F185E0E4
:10073000FF120D1DEFF09000085193D15690000E5E
:10074000E0FFC390000DE09FF090000CE09400F0FB
:10075000900008519F90000EE4FCFDFE3166900071
:100760000851ABF174F185120C42900000EEF0A339
:10077000EFF0809D900000E0FEA3E0FF22900927AB
:10078000E014F0E0227B017A00790F90000E221134
:100790000F9102EF6004111080F72275FF03759E20
:1007A000029017FAE493F53C75FF02E5E654036006
:1007B00003020B6D753CDE753DAD753EBE753FEFBA
:1007C000C2AF75FF0275E404F5E47546FF7547FF97
:1007D0007548FF7549FF7542FF7543FF7544FF7506
:1007E00045FF75FF0253E6BF1213211211221210AA
:1007F00017EF64016003020B6490180893FE740104
:1008000093FF9000ADEEF0A3EFF0F5828E83E493BA
:10081000FE740193FFC3EE9480500280047E807FBB
:10082000008E408F41B15CFFF5828E83740293F598
:100830004A740393F54B740493F530740593F531C2
:10084000740693F532740793F533C201EF4E7002CC
:100850002140EFF4FFEEF44F70022140E540454A9D
:10086000FEE541454BFFE5304EFEE5314FFFE532F9
:100870004EFEE5334F4E70022140E54BF4FFE54A52
:10088000F4FEE541F4FDE540F44EFEED4FFFE531A9
:10089000F4FDE530F44EFEEF4DFFE533F4FDE532B7
:1008A000F44EFEEF4D4E700221407F0312033DE5F2
:1008B0003324FFFFE532B134640370247F02120356
:1008C0003DE53124FFFFE530B134B402137F01125E
:1008D000033DE54B24FFFFE54AB134B40102D201E8
:1008E00020015D7F0112033DB1559000E8E54AF01B
:1008F000A3E54BF07F0F7E1D91B57F02B14A9000BA
:10090000E8E530F0E53191B37F03B14A9000E8E5C6
:1009100032F0E53391B37F0112033D900922E0FEEE
:10092000A3E0FF7BFF7A187900E425419000E9F00D
:10093000E54034E89000E891B44EC37001D39201D1
:10094000300109B1B2EF640160026164B15CF5820B
:100950008E83740C93F53A740D93F53B90009612C8
:1009600002937170900079B199FD9000AF7198EF8A
:100970002408FFE43E71827B007A007938B11D744F
:1009800002F0120656C200D3900078E0953990002C
:1009900077E09538400241739000AF12029FC0008B
:1009A000C001C002C003AE38AF39E4FCFDC006C0D0
:1009B00007900077E0FEA3E0FBAA06E4F9F8D00771
:1009C000D006120173D003D002D001D0001201660C
:1009D000717090007B120293EF24F2FFEE34FFB1AE
:1009E000649000AFB1EC400241739000AF120293EB
:1009F0007A00799FB11B740EF01206569000ABE09E
:100A0000F536A3E0F5379000A1E0F54AA3E0F54BF9
:100A1000A3E0F530A3E0F531A3E0F532A3E0F53330
:100A2000900092120293EF24FFFFEE347F718271E7
:100A300070AE4AAF4BE4FCFD9000AF71981205A177
:100A4000EF6401702E71767170AE30AF31E4FCFD51
:100A50009000AF71981205A1BF021871767170AE47
:100A600032AF33E4FCFD9000AF71981205A1BF03D3
:100A700002D200200002616030010EE53B65377054
:100A800004E53A6536700261607B017A097922716A
:100A90009E4002616090009B1202B7000018007136
:100AA0008A613A7440D395345002614F90007B9133
:100AB000C3EE34F8B1649000AF12029FD312025C0F
:100AC0004002614F90009B1202937B007AF87901FB
:100AD0007800C312025C40779000AF1202930B7A49
:100AE0000179009000E17408F0A3E4F0120656E4E6
:100AF000F535FB91EFAF34B16EE535C39408502066
:100B000091EDE5357F00FEEF2400F974013EFA7B9C
:100B10000190090BE535F0AD34121384053580D909
:100B200090009B91C3EE3408718290009B1202AB3F
:100B30009000AF91C3EE340871827170E4FB7A08C3
:100B4000F9F890009B1202931201BD8F3441A374F7
:100B500040D39534400A91EDAF34B16E053480EF47
:100B6000E4FFB1F3E4F53CF53DF53EF53F02180036
:100B70009000AF0202AB9000AF120293E42FFFEEA1
:100B80003480FEE43DFDE43CFC22900079E0FEA3CD
:100B9000E0FFE4FCFD90009612029F0201669009BE
:100BA0001F120308718AEF2408FFE43E71827A0065
:100BB000797FB11B7402F012065690007FB199FD47
:100BC00090009271987B017A007984B11D740EF0C7
:100BD000120656900092717991D2900086B13D7FB5
:100BE0000F7E1D91D8B124C006C00791C0E43E918C
:100BF000CA900088B13DD007D00691D8B124C00674
:100C0000C00791C0EE348091CA90008AB13DD007F0
:100C1000D00691D8B124C006C007718A91D2900045
:100C200085E02400FE900084E034E8900006F0A304
:100C3000CEF0D007D00691D812011C45F0C3700148
:100C4000D322E0FD9000E8E4F0A3EDF09000E3EEA5
:100C5000F0A3EFF0A31203089000E81206BB604A6D
:100C60009000E5D1439000EAF07D80ED60EA91AA22
:100C7000EE7C0030E7027C019000EAE05D7B0060E2
:100C8000027B01EB6CFCEF25E0FFEE339000E3F01C
:100C9000A3EFF0AF04EF600C9000E3E06410F0A36A
:100CA000E06421F0EDC313FD80C19000E3E0FEA3FA
:100CB000E0FF22A3F0914C900922EEF0A3EFF02286
:100CC000900092120293E42FFF22FEED3401FDE426
:100CD0003CFC9000020202AB1206F490091F1202C3
:100CE000E8EE8FF012014790091F0202E87B007ABC
:100CF00000793CB19275FF03120076F5D375FF03BE
:100D0000900001B12B900002B12B900003B12B7524
:100D1000D40175FF03E5D55402FF227B019000E169
:100D2000E4F0A32212011CFFAEF02212008FF5D3D3
:100D300075FF0322347F8F82F583E49322E0FFA3C3
:100D4000E0900006CFF0A3EFF02212033D900922BD
:100D5000E0FEA3E0FF7BFF7A807900229000ADE007
:100D6000FEA3E022FEED34FFFDEC34FFFC2275FF14
:100D700003EF543F4480F5D1E5D520E20AE5D520C4
:100D8000E005E5D530E1F1E5D55403FF75FF0375C6
:100D9000D50575FF0375D40222E0FEA3E0FFE4FC55
:100DA000227F0F7E1D91449000EF1202E89000F226
:100DB0008142E4900926F090009AE06020B1E3704F
:100DC000087FFF7E77FDFC800CD13350107FFF7EC3
:100DD000FF7D017C001205A1900926EFF090092605
:100DE000E0FF22E4FFFE7D02FC90007B12029FC325
:100DF00002025C900924EFF0E4A3F090009AE06016
:100E000021B1E37008D1287E777D00800AD133506C
:100E100011D1287EFF7D017C0012034DE43390093F
:100E200025F0900925E0FF22900924E0900915F0B3
:100E30007FFF2290007B120293E4FBFA7904F8D33F
:100E400002025CE475F0011202F1020076B19275C3
:100E5000FF03E5D5F45402FF229000FCD174C007D3
:100E60009000FC1202E89000FFE0FFB11DEFF0D00F
:100E700007020656120308E4FCFD22900902D17411
:100E8000C0079009021202E8900905F113F0D0079B
:100E900090004F1202AB900053120308E4900076CA
:100EA000F0D3900057E0941E900056E0940040016B
:100EB000227B017A007958900056E0FFA3E0900071
:100EC000E1CFF0A3EFF090004F120293120656907C
:100ED00000531202E8E94A600F900076E0F582754F
:100EE000830012008FFF80027F00900076E024587C
:100EF000F582E43400F583E06F6002C3229000764F
:100F0000E004FFF0D3900057E09F900056E094007B
:100F100050BD22E0FFA3E0900056CFF0A3EF229057
:100F200000F5D174C0079000F51202E89000F8E0D7
:100F3000FFA3E09000CDCFF0A3EFF0D0079000C664
:100F40001202AB9000CA12030812145B9000CDF19C
:100F500013F09000C6120293D190500302100C902F
:100F600000C1E024FFFF9000C0E034FFFEE4FCFD80
:100F70009000C612029F12024F9000CFEEF0A3EF36
:100F8000F04E603D12100EC39000C1E09FFF900034
:100F9000C0E09EFE9000CFF0A3EFF09000CDE0FC0B
:100FA000A3E0FDD39FEC9E5006A3ECF0A3EDF0125E
:100FB0001416E94A600512100E80447E007F0080FE
:100FC0003E9000CD1212F760419000C0E0FCA3E01B
:100FD000FDD3EF9DEE9C400A9000CFECF0A3EDF026
:100FE000800D9000CDE0FFA3E0A3CFF0A3EFF012BF
:100FF0001416E94A600512100E80047E007F0090EE
:1010000000CBEE8FF01200F080B7D322C322900005
:10101000CFE0FEA3E0FF22E490009AF07B017A008B
:101020007981119C900083E0FBB41122900096120C
:1010300002B7000078009000921202B70000600032
:101040009000777418F0A3E4F0A3F0A38027741243
:10105000D39B50279000961202B700020000900028
:10106000921202B700020000E4900077F0A3F0A310
:101070007418F0A3E4F090009A04F090009AE0FB5A
:101080006017E4FFFE7D02FC900083E024EFF9F896
:1010900012028090007B1202ABAF03229000B9E0F5
:1010A0001200BC9000BEE09000011200CE9000BF84
:1010B000E09000020200CE75FF03E4F5977105E5AC
:1010C0009720E1FB75FF03AF9922900916EFF0A37B
:1010D000EDF0A3120308900917E06045901217E0A5
:1010E0006012900916E02410FF11B790091812023F
:1010F000E8EF8017900916E0640190091870071254
:1011000002E8748080051202E874FF1200BC9009A6
:101110001951FE900917E014F0900916E004F080D0
:10112000B5227B017A0079BC7F0351DE7A0079C554
:101130007F0851DE7A0079C27D027F0911CA7B01E6
:101140007A0079C07D027F0B11CA9000C051F76010
:1011500006BEFF1BBFFF189000C5E024FD6003041E
:10116000700451ED80099000C0E4F0A37440F09049
:1011700000C5E024FD60030470089000BD7403F016
:1011800080069000BD7402F09000BCE012031111C3
:10119000AB0411B61411BE1511C61711DC3011E4E1
:1011A0003411EC3611F437000011D175FF015342B0
:1011B000EF8542FD804775FF015343EF800E75FFB9
:1011C000015343DF800675FF0153437F8543C98088
:1011D0002C75FF015344DF8544CA802175FF0153FC
:1011E00045FE801675FF015345EF800E75FF0153D4
:1011F00045BF800675FF0153457F8545CB12052607
:101200007F1151D8E4FF1206C412045E9000BA7434
:1012100002F09000BEE0247F600904701651E5746E
:101220000A80071206A151E57458F09000BD7403BE
:10123000F051ED9000BFE0F4600241D59000C2E0B3
:10124000FEA3E0FF64104E70069000BF740EF0EF36
:1012500064204E70069000BF740FF0EF64404E7033
:10126000069000BF7410F0EF64804E70069000BFCF
:101270007411F0E4B5070AEEB401069000BF7412D1
:10128000F0E4B5070AEEB402069000BF7413F0E470
:10129000B5070AEEB404069000BF7414F0E4B50775
:1012A0000AEEB408069000BF7415F0E4B5070AEE24
:1012B000B410069000BF7416F0E4B5070AEEB4202F
:1012C000069000BF7417F0E4B5070AEEB44006902C
:1012D00000BF7418F0020639EF4420F5FE227D01AC
:1012E00011CA7B01227F1051D89000BA229000C011
:1012F0007401F0A3E4F022E0FEA3E0FF4E22E475C7
:10130000F0010200F075FF038F9875FF032275FF4F
:10131000037597017105E59720E1FB75FF03AF9910
:101320002290091B7410F090091BE0FFD3947F50AA
:101330003D11B790091CEFF090091BE0B410067E38
:101340001D7F0F800890091DE0FEA3E0FF7B017A5E
:1013500009791C9000E8E4F0A304F0120C4C900909
:101360001DEEF0A3EFF090091BE004F080B99009A6
:101370001DE07002A3E07F0070027F01901217EF62
:10138000F024FF2275FF03ACD5EC20E13C75FF0390
:10139000ED543FF5D175FF03E9F5D375FF03EA542A
:1013A0000FFF90090BE0C4547044804FF5D2E5D58F
:1013B00020E205E5D530E0F6E5D55401FC75FF03E4
:1013C00043D40275FF0375D505AF0422E4FCFD028A
:1013D00005A1AB05E4FCFD900915EBF002034D906F
:1013E00000BBE0FF22E49000BBF022EFB40109D281
:1013F000AD75FF0143AE4022C2AD75FF0153AEBFD4
:1014000022E5C85402FF75C80222E5C85404FF2231
:10141000E5C85401FF229000CA1202E89000CFE014
:10142000FFA3E09000D8CFF0A3EFF09000C6120227
:10143000931203A59000CFE0FEA3E0FFC39000CE7F
:10144000E09FF09000CDE09EF09000C612029FE475
:10145000FCFD1201669000C61202AB9000CA0202A7
:01146000E8A3
:1017FA000421FFFEFFFF02184E1A3E1A43227FB849
:10180A00EF90181393901900730A20364CE567FF7E
:10181A0022EFF567221B011B06025EE11B1A1B1F42
:10182A00FF0240AE5E86725A738559608E20257A11
:10183A00005E252085598E71601ACF1AD41AD91ADA
:10184A00DE023A4075818C75FF03759E02121920DB
:10185A000233C102285E9022F4E47E019360F4A36D
:10186A00FF543F30E509541FFEE493A360010ECFF5
:10187A0054E0B4E00EEFFAEEF9A3A3A3A3DAFDD97C
:10188A00FB80D654C025E0604B5026E493A3F8545D
:10189A0007240CC8C333C4540F4420C8834004F43B
:1018AA0056800146F6DFE480B001020408102040A9
:1018BA0080E493A3FAE493A3F8E493A3C8C582C887
:1018CA00CAC583CAF0A3C8C582C8CAC583CADFE924
:1018DA00DEE78085E493A3F8E493A34003F680014E
:1018EA00F208DFF402186319C119C619CB19D01905
:1018FA00DA19EE19F3FFC0677419C0E0C082C08319
:10190A0075670AE5FF54CF4490F5FF22C067741942
:10191A00C0E0C082C083756720E5FF54CF4490F5CC
:10192A00FF22C0677419C0E0C082C083756736E5BC
:10193A00FF54CF44A0F5FF22C0677419C0E0C082EB
:10194A00C08375674CE5FF54CF44B0F5FF229098E9
:10195A001A211690A000211690A003211690A8BA69
:10196A00211690A928211690B243211690BFF6217C
:10197A001690C001211690A519211690C1A321160F
:10198A0090C8A9211690C97E211690CA5B2116908B
:10199A00CA73211690A539211690CAF5211690CB43
:1019AA00BF2116909833211690CC77211690CC93AC
:1019BA00211690B1B8211690C5E3211690C57E2153
:1019CA001690CF75211690CFF4211690D172211658
:1019DA0090D103211690D1C3211690D1E0211690FF
:1019EA00C6E7211690B10D211690B07B211690D32F
:1019FA0052211690B172211690C5A0211690A8D92D
:101A0A00211690A3B9211690D4BB211690BC50215F
:101A1A001690D5E3211690D298211690D5F1211669
:101A2A0090D636211690D654211690D69F2116901C
:101A3A00D6EF211690D763211690A6A7211690D724
:101A4A00AA211690B8F0211690BE1A211690BE103F
:101A5A00211690D7BE211690D819211690D8862122
:101A6A001690800021429080922142908237214232
:101A7A009082482142908260214290841F214290A4
:101A8A0081D22142908597214290861D21429083DE
:101A9A0046214290846C214290809D214290809CF4
:101AAA0021429086AE214290AFFB212C90AFFD21BE
:101ABA002C908000212C90B02A212C90B04A212C05
:101ACA0090AFFC212C90AD59212C90B191212C90F2
:101ADA00B180212C90B1AA212C90BCC6212C90BD9A
:101AEA0025212C90B4D7212C90B2B9212C90BD4835
:101AFA00212C90BD73212C90C185212C90C23821B4
:101B0A002C90C2EA212C90C444212C908FBE212C07
:101B1A0090B75E212C90C808212C90B076212C9089
:101B2A00C91B212C908CAA212C90C9D9212C90C98F
:101B3A00E5212C90B788212C90BF9C212C90CC3485
:101B4A00212C90D144212C90D26A212C90D2AB2105
:101B5A002C90D2C0212C908479212C90D2F3212C64
:101B6A0090D38E212C90D3AC212C00E709F608DF04
:101B7A00FA8046E709F208DFFA803E88828C83E71A
:101B8A0009F0A3DFFA8032E309F608DFFA8078E386
:101B9A0009F208DFFA807088828C83E309F0A3DFF8
:101BAA00FA806489828A83E0A3F608DFFA8058897A
:101BBA00828A83E0A3F208DFFA804C80D280FA801E
:101BCA00C680D4806980F28033801080A680EA8043
:101BDA009A80A880DA80E280CA803389828A83EC7C
:101BEA00FAE493A3C8C582C8CCC583CCF0A3C8C500
:061BFA0082C8CCC583CCBB
:101C0000DFE9DEE7800D89828A83E493A3F608DFAB
:101C1000F9ECFAA9F0EDFB2289828A83ECFAE0A3C1
:101C2000C8C582C8CCC583CCF0A3C8C582C8CCC502
:101C300083CCDFEADEE880DB89828A83E493A3F247
:101C400008DFF980CC88F0EF60010E4E60C388F0A9
:101C5000ED2402B4040050B9F582EB2402B4040070
:101C600050AF2323458223901BC573BB0106898295
:101C70008A83E0225002E722BBFE02E32289828AA5
:101C800083E49322BB010CE58229F582E5833AF5D2
:101C900083E0225006E92582F8E622BBFE06E9250C
:101CA00082F8E222E58229F582E5833AF583E4931E
:101CB00022BB010989828A83F8E028F02250032799
:101CC000F722BBFE05F8E328F3228A838982F8E431
:101CD000932822BB010FF8E58229F582E5833AF5C6
:101CE00083E028F0225009C58229F8E58226F622F1
:101CF000BBFE09C58229F8E22582F222F8EA258393
:101D0000F583E9932822BB010689828A83F0225059
:101D100002F722BBFE01F322F8BB010DE58229F593
:101D200082E5833AF583E8F0225006E92582C8F679
:101D300022BBFE05E92582C8F222EF8DF0A4A8F0AF
:101D4000CF8CF0A428CE8DF0A42EFE22BC000BBEBA
:101D50000029EF8DF084FFADF022E4CCF875F00897
:101D6000EF2FFFEE33FEEC33FCEE9DEC984005FCCC
:101D7000EE9DFE0FD5F0E9E4CEFD22EDF8F5F0EE94
:101D80008420D21CFEADF075F008EF2FFFED33FD7F
:101D90004007985006D5F0F222C398FD0FD5F0EA1F
:101DA00022C2D5EC30E709B2D5E4C39DFDE49CFC2A
:101DB000EE30E715B2D5E4C39FFFE49EFE121D4C42
:101DC000C3E49DFDE49CFC8003121D4C30D507C389
:101DD000E49FFFE49EFE22C5F0F8A3E028F0C5F0E2
:101DE000F8E582158270021583E038F022A3F8E04E
:101DF000C5F025F0F0E582158270021583E0C83841
:101E0000F0E822BB010A89828A83E0F5F0A3E02290
:101E1000500687F009E71922BBFE07E3F5F009E356
:101E2000192289828A83E493F5F074019322BB011D
:101E300010E58229F582E5833AF583E0F5F0A3E029
:101E4000225009E92582F886F008E622BBFE0AE95D
:101E50002582F8E2F5F008E222E5832AF583E9938A
:101E6000F5F0A3E99322BB010DC58229C582C58384
:101E70003AC583021DD75011C58229F808E5F0261E
:101E8000F618F5F0E58236F622BBFE11C58229F878
:101E900008E225F0F5F0F218E23582F222F8E58248
:101EA00029F582E5832AF58374019325F0F5F0E4A2
:101EB000933822BB010A89828A83F0E5F0A3F022DD
:101EC0005006F709A7F01922BBFE06F3E5F009F367
:101ED0001922EF2BFFEE3AFEED39FDEC38FC22C360
:101EE000EF9BFFEE9AFEED99FDEC98FC22E88FF057
:101EF000A4CC8BF0A42CFCE98EF0A42CFC8AF0ED91
:101F0000A42CFCEA8EF0A4CDA8F08BF0A42DCC3844
:101F100025F0FDE98FF0A42CCD35F0FCEB8EF0A47C
:101F2000FEA9F0EB8FF0A4CFC5F02ECD39FEE43C36
:101F3000FCEAA42DCE35F0FDE43CFC2275F00875DA
:101F40008200EF2FFFEE33FECD33CDCC33CCC582F4
:101F500033C5829BED9AEC99E58298400CF582EEB0
:101F60009BFEED9AFDEC99FC0FD5F0D6E4CEFBE498
:101F7000CDFAE4CCF9A88222B800C1B90059BA0060
:101F80002DEC8BF084CFCECDFCE5F0CBF97818EFBB
:101F90002FFFEE33FEED33FDEC33FCEB33FB10D7BC
:101FA00003994004EB99FB0FD8E5E4F9FA2278187D
:101FB000EF2FFFEE33FEED33FDEC33FCC933C910D8
:101FC000D7059BE99A4007EC9BFCE99AF90FD8E00A
:101FD000E4C9FAE4CCFB2275F010EF2FFFEE33FEDC
:101FE000ED33FDCC33CCC833C810D7079BEC9AE84F
:101FF00099400AED9BFDEC9AFCE899F80FD5F0DAD0
:10200000E4CDFBE4CCFAE4C8F922EF5BFFEE5AFE24
:10201000ED59FDEC58FC22C3E49FFFE49EFEE49DD5
:10202000FDE49CFC22EB9FF5F0EA9E42F0E99D4224
:10203000F0EC6480C864809845F022EB9FF5F0EAEC
:102040009E42F0E99D42F0E89C45F022E8600FECEA
:10205000C313FCED13FDEE13FEEF13FFD8F122E8DE
:10206000600FEFC333FFEE33FEED33FDEC33FCD8EE
:10207000F122BB010789828A830220E95005E9F831
:102080000222B8BBFE05E9F80222C422E0FCA3E06C
:10209000FDA3E0FEA3E0FF22E493FC740193FD7432
:1020A0000293FE740393FF22E0F8A3E0F9A3E0FAA1
:1020B000A3E0FB227401FF3395E0FEFDFCA3A3A384
:1020C000E02FFFF0E582158270021583E03EFEF0FE
:1020D000E582158270021583E03DFDF0E5821582F0
:1020E00070021583E03CFCF022ECF0A3EDF0A3EECF
:1020F000F0A3EFF022A8828583F0D083D082122152
:102100000C12210C12210C12210CE473E493A3C5D0
:1021100083C5F0C583C8C582C8F0A3C583C5F0C513
:1021200083C8C582C822A42582F582E5F03583F5EF
:102130008322E0FBA3E0FAA3E0F922F8E0FBA3A3EB
:10214000E0F925F0F0E582158270021583E0FA3897
:10215000F022EBF0A3EAF0A3E9F022E493FB740190
:1021600093FA740293F922BB010789828A830221C0
:10217000325005E9F80222D0BBFE05E9F80222E25E
:1021800089828A8302215BBB011A89828A83D0F00B
:10219000D0E0F8D0E0F9D0E0FAD0E0FBE8C0E0C051
:1021A000F00221525016E9F8D083D082D0E0F9D065
:1021B000E0FAD0E0FBC082C0830222D9BBFE16E960
:1021C000F8D083D082D0E0F9D0E0FAD0E0FBC08232
:1021D000C0830222EB22BB010DE58229F582E58353
:1021E0003AF5830221325007E92582F80222D0BB5A
:1021F000FE07E92582F80222E2E58229F582E583DD
:102200003AF58302215BBB0120E58229F582E58353
:102210003AF583D0F0D0E0F8D0E0F9D0E0FAD0E0A1
:10222000FBE8C0E0C0F00221525018E92582F8D046
:1022300083D082D0E0F9D0E0FAD0E0FBC082C08346
:102240000222D9BBFE18E92582F8D083D082D0E0E3
:10225000F9D0E0FAD0E0FBC082C0830222EB22D0AA
:1022600083D082F8E4937012740193700DA3A3934A
:10227000F8740193F5828883E4737402936860EFC5
:10228000A3A3A380DF8A838982E473EC8EF0A4CCBD
:10229000C5F0CCCDF8EFA4CEC5F02DFDE43CFCE8B4
:1022A000A42EC8C5F03DFDE43CFCEFA4FFE5F028FA
:1022B000FEE43DFDE43CFC22ECF608EDF608EEF60B
:1022C00008EFF622ECF208EDF208EEF208EFF22247
:1022D000E6FB08E6FA08E6F922EBF608EAF608E972
:1022E000F622E2FB08E2FA08E2F922EBF208EAF24F
:1022F00008E9F2224103BF00E0020200001954E0A5
:1023000002020002120EE00102000954E001020084
:102310000AA5E00502120B120E02042141051F0658
:1023200001140041051E0141051C01C112011900E3
:10233000011700412C8B00C115C1094126B2004193
:102340002718FF41271000C108C107412719004184
:10235000271A0041271101C10B4126B100C10F010D
:102360003000C10CC10D41317C00C133432B9C00B6
:102370000000412B9B00412B9F00C11FC116C118BB
:102380004121A8004920014C6966656C696E6500B1
:102390004C21C84550203120737769746368004C24
:1023A00021D44550203220737769746368004C2132
:1023B000E04550203320737769746368004C21EC4A
:1023C0004550203420737769746368004F21A9FF5A
:1023D000182E0CFF183A010121A801031001432116
:1023E000A504004058218D100108FF183B1001087A
:1023F000FF183B100108FF183B100108FF183B4471
:10240000218671055A0142218B710560B820C27185
:10241000087105616C61726D20455020310000002B
:1024200000000000000000000000000000000000AC
:1024300000000000000000000000000000710871B2
:1024400005616C61726D2045502032000000000073
:10245000000000000000000000000000000000007C
:10246000000000000000000000000071087105611C
:102470006C61726D204550203300000000000000A8
:10248000000000000000000000000000000000004C
:1024900000000000000000000071087105616C611F
:1024A000726D204550203400000000000000000044
:1024B000000000000000000000000000000000001C
:1024C00000000000000000602E200A710871056104
:1024D0006C61726D2045502031000000000000004A
:1024E00000000000000000000000000000000000EC
:1024F000000000000000000000602E20387108710C
:1025000005616C61726D20455020320000000000B2
:1025100000000000000000000000000000000000BB
:102520000000000000000000000000602E20667126
:10253000087105616C61726D204550203300000008
:10254000000000000000000000000000000000008B
:1025500000000000000000000000000000602E20CD
:102560009471087105616C61726D204550203400D2
:10257000000000000000000000000000000000005B
:1025800000000000000000000000000000000050FB
:1025900021B8070007000700070007000700070031
:1025A00007004C217A02010203020204030205041F
:1025B000024121F90041218A2041200001C135E07A
:1025C000020212100730E00502193B073004020135
:1025D000E0020219400013E00C02194202930314B6
:1025E0000003001402010421E00502194E0013FF4C
:1025F0000201E0020219530000452A040000000015
:1026000000604029C400000000000000000000003D
:1026100000000000000000000000000000000000BA
:1026200000000000000000000000000000000000AA
:10263000000000000000000000000000000000009A
:102640000000000000C13660402A090000000000C0
:10265000000000000000000000000000000000007A
:10266000000000000000000000000000000000006A
:10267000000000000000000000000000000000005A
:102680000000000000000000000000412F65004233
:102690002F660000422F680000422F630000422B8B
:1026A000000000422ADE0000422AE10000412AE345
:1026B000005C2AE4000000000000000000000000B0
:1026C000000000000000000000000000000000000A
:1026D00045304F010101010141311200413111002A
:1026E00041311000442F7B00000000412F78004151
:1026F0002F7900412E8000412E8100422E7900006A
:10270000452E7B0000000000412EE5FF412EE30432
:10271000422EE60000C1B7412EE100412EE4004305
:102720002373000000412376004125B4004125B306
:1027300001C1BD4430C000000000412C3C00412CD0
:102740004500412C4900412C4800412C4400412CBB
:102750003F00422C3D0000422C4B0000432FEB0079
:102760000000432DCE000000412DCC00412DD100B2
:102770004E2ACF071037371111242436362323224F
:1027800022472AC011243623222134482AC707377A
:102790001012141516174A2AB60000000000000097
:1027A000000000C143412B4728512B2600000000A8
:1027B00000000000000000000000000000422CCFDC
:1027C0000000422CD10000472CC80000000000008F
:1027D00000412CD3024B2E2C000000000000000012
:1027E00000000000C2D5E830E70FB2D5E4C39BFB80
:1027F000E49AFAE499F9E498F8EC30E717B2D512C4
:10280000281A121F78E4C39BFBE49AFAE499F9E4CE
:1028100098F88003121F7830D50DE4C39FFFE49E23
:10282000FEE49DFDE49CFC22788CE4F6D8FD90004B
:10283000007F007E10E4F0A3DFFCDEFA904FFFA3E0
:10284000E583C394204011FEAF829020000E0FE478
:102850008002F0A3DFFCDEFA121920021860223297
:102860003F241E16110E0B09070504030201F0C8D0
:10287000A791776760463835323024222014000152
:1028800001020203030404050506060707000D45BF
:10289000DA000D403000000000020C00013F3F3F15
:1028A000040404404040000000001AE81AED1AF247
:1028B00000000000001AF75A2D5761766520342E6B
:1028C000333300822D1C1613111010198A19941914
:1028D00099199E1B4C1B511B561B5B1B0B1B101B82
:1028E000151B241B291B2E1B331B381B6A1B6F1A3D
:1028F000111A1B1AE31AFC1B3D1B421B47E4F97D0E
:102900000CAC0109EC9028B793FC0FEFAA067001FC
:102910000E14F5828A83ECF0DDE77F03228F828E2E
:1029200083E4F0A37404313074213130A3E4F02245
:10293000F08F828E83A3A3221231CE121A4812196D
:10294000B2121A7F1262E060727E007F09F1ECBF62
:10295000540D7E007F0AF1ECBFA5047F0180027F49
:1029600000900561EFF07401F060277E007F00F1B8
:10297000ECEFFD7419B5051374002401FFE4340075
:10298000FEF1EC74546F7001E46007510B90056127
:10299000EFF0900561E070237E007F04C006C374F1
:1029A000549404FE7419940012618DF1D7D006B1CD
:1029B0001A74FFFDFCE4FFFE1238A91262E07F00EA
:1029C00060027F011219FD121A0212198F12615A48
:1029D00012196212400FFE4FFDA3E0FC4DFDA3E073
:1029E000FB4D600BEE5FFFEC5FFFEB5FF4700312DB
:1029F00036E190121CE0FF5403241EF582E43412E9
:102A0000F583E06F9003BAF0021AAC7E7F7F94905A
:102A10002B8EEEF0A3EFF0F5828E831241914A4B9C
:102A2000700241C51261E47B017A2B7991D112F1D8
:102A3000DE902B8212213212635AE92407F9E43A1C
:102A4000FA902B8B122152AE02D10A902B99E0FE04
:102A5000A3E01262F87003E4936E7F0060027F01CE
:102A6000902B90EF1261F42402D106902B90E0FF9E
:102A7000902B99E0FCA3E0FD907FC27401936D70F0
:102A800003E4936C7E0060027E011261EF2408D1A2
:102A90000612628F9401902B99E094027E0040020E
:102AA0007E011261EF240AD10612628F9421902BCD
:102AB00099E094047E0040027E01EF4E902B90F04E
:102AC00060037F00221261081261B9F0A3EFF0AE3B
:102AD00002AF01AC02AD01E02DFD902B93E03CCDA7
:102AE0002402CD3400FC1238A912419D4A4B7002D9
:102AF00061BB61AE1262659480EC947F500281F6F6
:102B00001261081261B9123A311241914A4B606464
:102B10001261E47B017A2B7991D112F1DE12419D91
:102B20002405F9E43AFA12635AB114902B88122161
:102B300032C003C002C001B10CD3D082D083D0E038
:102B40001261FD403612419D2405FEE43A902B951A
:102B5000F0A3CEF0B10C902B94E029FF902B93E0E2
:102B60003A902B971262C8902B95E0FEA3E0FF12DB
:102B700041C180071262A7F1D7B114F1DE12626F72
:102B8000402CB10C126235CF24FBCF34FFFEC006BF
:102B9000F1D7126183D006B11AB10C12627BCF2437
:102BA000FBCF34FF12389CB10C126122B11A902B6A
:102BB0008E74FF75F0F6121DD741F4902B8E747F42
:102BC000F0A37480F01262659494EC947F400281CB
:102BD000F612610874069324FEFE74059334FF9088
:102BE0002B93F0A3CEF08D828C83740393FF740437
:102BF00093902B91CFF0A3EFF0F1DE4E700281A6FF
:102C0000902B8EE0FCA3E0F5828C8374079324FC68
:102C1000601C1460282403703D7A007900B112B161
:102C20000CC3EF99FFEE1261AA902B91801A7B01E1
:102C30007A607900B114B10C12619F800B7A6079CF
:102C400040B112B10C12619FF0A3EFF01241A8FA4B
:102C5000902B85122152902B881261E7B10CE96FFD
:102C60007002EA6E601F902B881261E7902B95EE40
:102C7000F0A3EFF0B10CAC02AD01902B97ECF0A3F8
:102C8000EDF01241C1902B8E123A08740793640242
:102C9000701B7E007F097D541255577E007F0A7D90
:102CA000A512555780071262A7F1D7B114F1DE12B1
:102CB000626F4036B10C126235FEC006F1D7126168
:102CC00083D006B11AB10C12627B12389CB10CE9A8
:102CD00024FE902B851242B1902B8E123A0812617D
:102CE000B9F0A3EFF0126122B11A902B8EE475F0C7
:102CF0000A121DD761C5902B937419F0A37454F078
:102D00007E007F00126126B11A7F0122902B85027E
:102D100021327B01902B88022152902F181255FFEF
:102D2000C007902F18122132902F1B12624FD0072C
:102D3000126102902DF91221521262B8902DFC12EC
:102D40005606902DF512208C1255645002C1049045
:102D50002C88E024FFFF902C87E034FFFEE4FCFD8C
:102D6000902DF51220A812200A902DFEEEF0A3EF70
:102D7000F04E6042902DFE123CB3902C88E09FFFF5
:102D8000902C87E09EFE902DFEF0A3EFF0902DFC9E
:102D9000E0FCA3E0FDD39FEC9E5006A3ECF0A3ED76
:102DA000F01260C31262B8E94A60051262EF804A0D
:102DB0007E007F008044902DFCE0FEA3E0FF4E608B
:102DC00041902C87E0FCA3E0FDD3EF9DEE9C400AF0
:102DD000902DFEECF0A3EDF0800D902DFCE0FFA314
:102DE000E0A3CFF0A3EFF01260C31262B8E94A602B
:102DF000051262EF80047E007F00902DFA1241BB25
:102E000080B4D322C322F9E43AFEAF017B017A2BCE
:102E10007999902FAE7402F0902FAB1255FFC00736
:102E2000902FAB122132902FAE1261C5D007902E99
:102E30005E1220E9902E6212215212380BD1FEEF61
:102E400060051236B180F6126146600A902E5E125D
:102E5000208C7810D189902E5ED184902E5E122025
:102E60008CE4D18D902E6512620E6011F151902E7E
:102E700062124CA8902E63E4123A3A80E712303E78
:102E8000E4FFE1B012208C780812204CE4E5C82061
:102E9000E2FB8FEB22902E551220E9902E59122141
:102EA0005212380BD1FEEF60051236B180F61230A7
:102EB0003012314D902C81E0FF126150600A902E4B
:102EC0005512208C7810D189902E55D184902E5592
:102ED00012208CE4801D902E5C12620E6019902EE0
:102EE00059122132EA494B6008902E5912613C80F8
:102EF00001E4FFD18D80DF12303EE4FFE1B07F01BD
:102F0000F1B030271812314D7F05F14F903170EF3D
:102F1000F012303E903170E020E002C227302720CE
:102F2000F14A902C7EEFF0F151902C7FEF1263521A
:102F3000600BA3E0F46006EF30E702C22712303ED8
:102F4000E4FFF1B0A227E433FF2212314D7FD7D145
:102F50008D7FFFD18DE5C820E2FBAFEB22903018CA
:102F60001220E912629AF1EF90301CE06F60381283
:102F7000380BD1FEEF60051236B180F612303012F8
:102F8000314D902C81E0FF126150600712629A78F7
:102F900010D189903018D18412629AE4D18D90308A
:102FA0001CE0FFF1A9D322C322D18D12303EE4FFF1
:102FB000EFB4010443FE202253FEDF22902C7EE07A
:102FC00020E0131231487F3DD18D7F2AD18D7F8043
:102FD000D18D7FA6F1A9227B007A00790022902B67
:102FE00091E0FEA3E0FF22F07E007F0BE4FCFD9069
:102FF00030131220E912380BD1FEEF60051236B102
:1030000080F6126146600B90301312208C781012FB
:103010002E89903013122E8490301312208CE412DB
:103020002F4F903017EFF0122FAB903017E0FF22A8
:103030007F01122FB0D227314D7F06122E8D125EE6
:103040008AEF70FA902C85E0F4600A90316D740676
:10305000F0D19F70FC902C83E012225F3078043016
:103060008014308515308A17309A30309F3430A460
:103070003630A93700003092435810855880802F91
:103080004359108008435920800343598085599043
:10309000801D435A20855AA08015435B01800D4353
:1030A0005B108008435B408003435B80855BB0908E
:1030B000316D740CF0D19F70FC227F01122FB09003
:1030C000316E7401F090316EE0603B314D7F05123E
:1030D0002F4F90316EEFF0113E122F4A902C7EEF61
:1030E000F0122F51902C7FEFF0113E90316EE05492
:1030F0000112635260CFA3E0F460CAEF30E7C6E488
:1031000090316EF080BF314D7F9F122F4F902C80F9
:10311000EFF0122F51902C85EFF0122F51902C864A
:10312000EFF0122FAB902C7EE0F4601BA3E0F46074
:1031300016902C85E0FD541F240FA3F0EDC413540A
:10314000074480902C85F0227F01122FB0902C83B1
:10315000E012225F317004317814317D153182170D
:10316000319230319734319C3631A1370000318AA9
:103170005358EF855880802F5359EF80085359DFFB
:10318000800353597F855990801D535ADF855AA07B
:103190008015535BFE800D535BEF8008535BBF804F
:1031A00003535B7F855BB07F0CDFFE2212380B126E
:1031B0002EFEEF6004D1B180F61130314D7F011247
:1031C0002E8D7F03122E8D113EE4FF022FB07A2C3C
:1031D00079837F03F1C47B017A2C798C7D017F0890
:1031E000121A5C7A2C79897F09D1987A2C79877F99
:1031F0000BD198902C87E0FEA3E0FF4E6006BEFF47
:103200001BBFFF18902C8CE024FD6003047004D1D8
:10321000A78009902C87E4F0A37440F0902C8CE0F8
:1032200024FD6003047008902C847403F0800690E1
:103230002C847402F0902C83E012225F3258043206
:103240006314326B153273173289303291343299EC
:103250003632A1370000327E75FF015354EF85549A
:10326000FD804775FF015355EF800E75FF015355E3
:10327000DF800675FF0153557F8555C9802C75FF8A
:10328000015356DF8556CA802175FF015357FE80D2
:103290001675FF015357EF800E75FF015357BF801E
:1032A0000675FF0153577F8557CB113E7F11718102
:1032B000E4FF718F11BA902C817402F0902C85E09C
:1032C000247F60090470167187740A8007122FBC6E
:1032D00071877458F0902C847403F0D1A7902C86D9
:1032E000E0F46002617F902C89E0FEA3E0FF6410AF
:1032F0004E7006902C86740EF0EF64204E7006908F
:103300002C86740FF0EF64404E7006902C8674107B
:10331000F0EF64804E7006902C867411F0E4B507CF
:103320000AEEB40106902C867412F0E4B5070AEE9A
:10333000B40206902C867413F0E4B5070AEEB404C8
:1033400006902C867414F0E4B5070AEEB4080690D3
:103350002C867415F0E4B5070AEEB41006902C869E
:103360007416F0E4B5070AEEB42006902C867417A4
:10337000F0E4B5070AEEB44006902C867418F021EC
:10338000ACEF4420F5FE227F107181902C812290B9
:10339000316FEFF0902C8CE0640270243148903152
:1033A0006FE07FAB60027FB9122E8D113E90316FBE
:1033B000E0902C8BF070047F1EDFFEE4FF122FB034
:1033C0002275FF0275E404E4F5E4C21175FF029072
:1033D0001215E0603CE5E6540364017034121A2FC4
:1033E00012527A4020901228E0600DE014F070082C
:1033F000122828E4901215F0901215E070028197BF
:10340000123D278197122828D211E4901215F081DD
:103410009712282812547A9003C0EFF0901200E01F
:10342000B47A14901214E0B49C0D9003C0E0FF64D1
:10343000056004EFB4032EE49003C5F09003C5E0EB
:10344000FFC394405013E42FF582E43412F583E473
:10345000F09003C5E004F080E3901200747AF090DD
:103460001214749CF0121A617B017A1279107D019A
:103470007F01121A5C7B017A1279117D017F211282
:103480001A5C7B017A1279127D017F22121A5C7A12
:103490001279227F02F1C4901222E0B401057F016B
:1034A00012543C121A3412547A121A2A9003C0EFA2
:1034B000F01219B7121A259003C0E0FFB40602807B
:1034C0000C3011047F0280059003C0E0FF121AB691
:1034D000EF24FFB3923375FF0253E6BF1262E06040
:1034E00005E4901215F0124092121A391229389000
:1034F0001215E0700F20330C121ABB7B017A27796A
:103500001C1219DF901223E030E002800330110416
:103510007F01D1C5D2AF203302A1A2121A7A12487C
:1035200038121AC0121A8440F29003BFE0604112B0
:103530001A52EF700512502A4036E51470FCE5155A
:1035400020E502F19B12195DEF70FA12542A500522
:1035500012541650047F01718F9003BFE0B402042F
:10356000E4FF80099003BFE0B403057F01123D49E9
:10357000121A4DE51530E1A3F1DC4002E4F0E51547
:1035800020E50BD17AAF82AE837D01123DD312616B
:10359000D0C0E0D1889003C2E0FDD0E0FF1219ADA9
:1035A000A11B124030123FF65002D1E19003BFE060
:1035B000605D9026B2E07057121A52EF70051250FB
:1035C0002A404CE51470FCE51520E509901223E033
:1035D00020E002F19B12195DEF70FA12542A500597
:1035E00012541650047F01718F9003BFE0B40203A0
:1035F000E480189003BFE0B403047F01800E9003C1
:10360000BFE0B4050A9012157401F0FF123D491293
:103610001A7A124838121AA2121AC5201905121A5B
:103620004D8022124FED9003B9E0FEEFC39E40059E
:10363000EF9EFF80089003B9E0F4042FFF7406D3D7
:103640009F5002C219E51530E128F1DC4002E4F098
:10365000E51520E50BD17AAF82AE837D01123DD313
:103660001261D0C0E0D1889003C2E0FDD0E0FF122B
:1036700019AD121A1612407DA1A29003C1E0FD758A
:10368000F0AA9003C8122126ED75F002A424BBF91C
:10369000740335F0FA7B01227B017D02021A5C90F3
:1036A000316DE014F0E022902C877401F0A3E4F077
:1036B00022E51530E20EE51520E509E51530E004B8
:1036C0007F01D1C522EF600DD17AAF82AE83E4FDD8
:1036D000123DD38009121A57F19BE433FF227F0178
:1036E00022E4FFD1C5EF60437B017A12791EF12CF1
:1036F00090121EE0C394C040EF7B017A127920F152
:103700002C12400F5FFFA3E05FFFA3E05FF460E9CE
:10371000901223E030E0047F01D1C5E490121CF048
:103720007B017A12791EE0FD121967229005521270
:103730002152C224E4FFD1C5BF010B9005521221D2
:103740003212586092247F01D1C5A22422F07F4C0E
:10375000F1547F4D903191EFF0E561C39420400426
:10376000D1B180F5E55DC394204003E4F55DC2ACC2
:10377000125FD1EF700DE5617009903191E0FFF1BA
:10378000F18013903191E0FFAE5D055D746E2E12F5
:103790005F87EFF00561D2AC7F0122E51470231240
:1037A0004C5E5005C22F123D67F1CB125243E5D15A
:1037B00020E0FB4315205315FEE4F510A21092ED16
:1037C000D322C3227B017D01021A5C1252C87F08FA
:1037D000021AB1C2AFEFF45215D2AF227F02F1D379
:1037E0009003C1E09003C5F09003C104F0C39402BC
:1037F000228FEF2275FF0275E40475E40175E4027F
:103800002275FF0275E404E4F5E42275FF02E5E4A5
:1038100030E10675E40675E40322110B122EFEEF6B
:1038200060051236B180F52290054CEFF090054E00
:10383000EBF090054DEDF05402901229F01262CF9A
:103840006006F1EC5002C32290054CE0B4040BA3D7
:1038500091D290054C7403F0802590054CE06405EE
:103860007018901223E090054D30E50691D27F1F2D
:10387000800491DAE4FFF1E4800590054D91DA903F
:10388000054CE09003BFF090054EE0901228F01236
:103890004FED9003C6EEF0A3EFF0D322FE902B94F1
:1038A000E029FD902B93E03AFC902D72F1EFECF0C3
:1038B000A3EDF0A37422F0A374F4F05105E4937027
:1038C000024104E493FF541F902D7891BAEFC41382
:1038D000540712225F38F10038F30138F502390E2F
:1038E00003392404393705394906395307000038AC
:1038F000BB803180425105740193FF740293902D77
:103900007ACFF0A3EFF0902D79E02403804151119C
:10391000740293FD740393902D7ACDF0A3EDF0EF34
:10392000240480205105740193902D7A1262B19085
:103930002D79E0240280185111740293902D7A9110
:10394000BAEF2403FFE43E21FA902D79E02401919F
:10395000C121FA902D761262BE740193FB7A009019
:103960002D79E0FEE42BFFEA3E512E740393FE9086
:103970002D76A3E0F5828C83740493FDEDFF902DEA
:103980007A1195902D73E09F902D72E09E50639078
:103990002D7491B3902D7BE09F902D7AE09E505234
:1039A000E4902D7CF0A3F0902D7891B3902D7DE0E4
:1039B0009F902D7CE09E503AE0FCA3E0FD902D7B93
:1039C000E02DFF902D7AE03CFE902D77E02405FB62
:1039D000902D76E034008B82F583E5822DF582E52B
:1039E000833CF583E493FD121971902D7CE4513AE8
:1039F00080B5902D79E0240591C1902D768FF0123D
:103A00001DD701BB22902D76E0FEA3E0F5828E83C8
:103A100022902D76E0FCA3E0FDF5828C8374019367
:103A2000FB7A00902D79E0FEE42BFFEA3EFE902D1C
:103A300078F0A3EFF08D828C832275F001021DD700
:103A4000C0E0C0F0C083C082C0D075D008C0FF7590
:103A5000FF01E5D530E6047F028009E5D57F00301F
:103A6000E7027F018F18E518640260026120E51407
:103A700012225F3A8C013A9F023B0C083AAA093A9B
:103A8000B50A3AC30B3AE10C00003C9075FF017592
:103A9000C355151AE51A600281907514028190755C
:103AA000FF0175C3F0751409819075FF0175C35549
:103AB00075140A819075FF01900530E0F5C3751407
:103AC0000B819075FF0190051DE0F5C3751401751C
:103AD0001A1490053F1262046002819075140C81E3
:103AE00090AB1CAA1DA91E124CBBAD16AF1F1256DF
:103AF0006AE4FB7D01FF124C1875FF0012631B4343
:103B0000FA0475FF00D15F7514088190C2EB75143B
:103B10000043150412525840028190E4513A8190BA
:103B2000E518640160028190125E6040028190E5B8
:103B300010702591A4E0FF64556004EFB4540ED2D8
:103B400011902973E0A3E090053DF08112751002F9
:103B500075FF0075D9088190E51064027062B11993
:103B6000E5D9121D06125E211251F490051CEFF0EA
:103B7000B10DE0900562F0E0FFD394094025900577
:103B80001CE0D39402400CEFD394AA7F0040027F44
:103B900001800D900562E0D394407F0040027F01D8
:103BA000EF600491C9806B900562E0F516125DE844
:103BB00090121DEFF075FF008516D97510038190E6
:103BC000E510640360028190B11991ABE5D9121D33
:103BD0000691C975FF0090051CE0C39403E5D3501E
:103BE000055402FF80035401FFEF602A30E111C346
:103BF00090052AE094FF900529E094FF5014800F6F
:103C0000C390052CE094FF90052BE094FF5003E453
:103C1000513AB1AC807AC22FB16775FF001252469B
:103C2000E5D120E0FBC2EB43150291A4A3E0FF9095
:103C3000121FE0FEEF6E91A3E090121E919DA3A3D0
:103C4000E0901220919DA3A3A3E0FE901221E0FD3D
:103C5000EE6D4F6012C390052EE094FF90052DE0AD
:103C600094FF5003E4513AC3900528E094FF900577
:103C700027E094FF5003E4513A75100090051CE0D2
:103C8000B403071516B10DE516F09003C2E516F062
:103C9000D0FFD0D0D082D083D0F0D0E032FEE0FD93
:103CA000EE6D4FFF85128285118322E92401F9E42C
:103CB0003AFA22E0FEA3E0FFC322FDE4F0A3EDF018
:103CC00022FF902D78E0340022301105C211125CE1
:103CD0005922E0FB7D017F018006E0FB7D01E4FFCE
:103CE000EB600875FF0153CDFD800675FF0143CDE4
:103CF00002ED600553FBDF800343FB20EF60077597
:103D0000FF0243E1402275FF0253E1BF22E5122486
:103D100007F582E43511F5832275FF01F5EA75EAAE
:103D2000FF900520022132901232E0FD7F011254F3
:103D30004D901223E090122930E50691D27F1F802A
:103D40000491DAE4FFF1E47F0143FB1075FF0243C5
:103D5000E640EF600D75FF02E5E120E7FB43FB0D58
:103D6000800343FB0E80FE903171E5F4F0E0547F58
:103D7000F5F47F827E00125694F157F1455005E527
:103D8000FC20E6F7302F08903171E04480F5F4F123
:103D900050F1455005E5FC20E6F775FF01E5D5201B
:103DA000E702C322E5F4D330E601C322C22FB16794
:103DB000125243E5D120E0FBE4F5FF75D9019005EF
:103DC0001CE07F00B403027F01D157D22FB167E41A
:103DD000F51022900541F1EF122152E5147077128F
:103DE0004C5E5004C22FB167900541E0FEA3E08E07
:103DF00011F512A3122132900520122152AE11AFFB
:103E0000127DAA125624E4F5FF75D901F510E515C7
:103E10005421602BE51530E504E4FFD166E49005FC
:103E200046F0900546E004F0125B9FEF60099005B4
:103E300046E0C3941040EB7F02121AB15315DE9096
:103E4000051CE07F00B403027F01D157D22FB16778
:103E5000D2EBA21092ED22D16643FA04E4F5FF53AF
:103E6000D1FD43D1012275FF01E5D530E602C32221
:103E7000E4F5FF439A80EF12625DE4F5FF539A7F09
:103E8000D32290055BEFF0C230125D20D21B90056B
:103E90005BE09030D7F0D21CA3E4F0A3740DF012D5
:103EA0005C66E490055CF0124C66506890055CE03E
:103EB0007062E5F754C060EFF12AF13D645570403F
:103EC000F13D90121CE06F7032F13D644A6018E0E1
:103ED000FF640A6012EF6455600D90121CE0FF90C1
:103EE000055CE0FE6F700590055C800A90051DE0A2
:103EF0006E90055C70197402F080AC90055C800FC8
:103F000090055CE0B454057433F0809B90055C74BC
:103F100001F0809390055CE0B40206C22FB1678087
:103F200000125C5990055CE0FF22E5F720E008E50F
:103F3000F754C070F5FF2243F701AFF922F12A9040
:103F4000055CEFF02275FF03E591C330E701D32252
:103F50007FE87E0312569475FF0343918022124737
:103F60004E80F490308CEFF0A312575AE9F075FFB1
:103F700001125DF3EF64016002C322E5F430E60252
:103F8000C3227FE87E03F15E125E45400122C22F0C
:103F9000B16790308CE0FFD16653F4DFD22FB16768
:103FA0007F787E001256C775FF0153E4BFE5E43009
:103FB000E7FB125D6D7F8A12571E30E606125761CD
:103FC000E4800875FF01125761E5D9121D0675FFDF
:103FD0000143E440125D8A400343F420125E4540F1
:103FE0000122D32275FF028FE32280F8A21122EE74
:103FF000F0A3EFF0A32290121CE0701112400F4FBB
:10400000FFA3E04FFFA3E04F7003D38001C32290D2
:10401000121EE0FFA3E0229003BAE064AA2411FF7D
:10402000F022AE071117EE04FEEF8EF084AFF022FF
:10403000301A0C9026B2E07006FF1219BCC21A307A
:104040001128902973E0A3E0FF90053DE0FEEFC347
:104050009E400AEF9ED394024010C2112290053D6B
:10406000E0F42FD394014002C211229003C3E0FC7C
:10407000A3E04C70069003C3023895C3229003C39B
:10408000E0FEA3E0FF4E6009CAEECAC9EFC91222E2
:10409000852275FF02D2ADD2BD75FF02758E717596
:1040A000620975FF02E58E546F4480F58E22C0E0F0
:1040B000C0F0C083C082C0D075D008C0FF75FF02B9
:1040C000E58E30E42975FF02E58E54EF4410F58E3D
:1040D000900000E004F0E56230E0020531E5627036
:1040E0000B756209902973123A3A8002156275FFC6
:1040F00002E58530E40875FF024385100565D0FFB1
:10410000D0D0D082D083D0F0D0E032902DEAEFF042
:104110007B027A007902A3122152805A31884E60C4
:1041200064902DEB51B9E924FB902DEE51B1AE0214
:10413000AF017B017A2D79F3122E12902DF3E0FE60
:10414000A3E0FF902DF1E0B5061DA3E0B5071890A0
:104150002DEE31A5FEAF01122FEC902DEAE0B50750
:1041600008902DEE022132801C3188902DEC31BB5D
:10417000902DEB122132AE02AF017B017A2D79F145
:10418000122E128097022FD7902DF1E0FEA3E0FFB0
:1041900022740793FF310B902B82122152902B82B5
:1041A000122132E922122132E92402F9E43A229062
:1041B0002898EE8FF0121DD790289AEE8FF0021DEE
:1041C000D7902B91E0FAA3E0FB902898123FEFECF8
:1041D000F0ED51C3D3902899E09D902898E09C4041
:1041E0002C516E4074515A40047F80800690289C68
:1041F000A3E0FF90289EEFF0902898E0FEA3E0FF58
:10420000517DFF7E0051629EF031AF80D490289C9A
:10421000E0FEA3E0FF31AF516E403E515A40047FB3
:1042200080800690289CA3E0FF90289EEFF0FD7C04
:1042300000C3902899E09DFF902898E09CFEF0A391
:10424000EFF0C390289BE09DF090289AE09CF051FD
:104250007DFF51629400F080BE22D3EF9480EE94F3
:104260000022C390289DE09FF090289CE022902897
:104270009CE0FEA3E0FFD39400EE9400227B017A41
:1042800028799F90289EE0902FAEF0122E1890284B
:104290009AE0FEA3E0FF7B017A28799F90289EE0B8
:1042A000FD902F1BE4F0A3EDF0122D1A90289EE054
:1042B00022F9EA34FFFA022152122132E92FF9EAF7
:1042C0003EFA22A3F0AF03A3EAF0A3EFF02290306E
:1042D0000AECF0A3EDF0AA07AF03EF70010FEF7542
:1042E000F00AA4FFAEF0EA1248F77116EA12482A63
:1042F000EEF0A3EFF090300DE0FFEA1248AEF58348
:10430000EFF090300AE0FEA3E0FFEA75F007A42486
:1043100023F582E43429F583EEF0A3EFF022902B0D
:10432000CC1220E9E4F5FF75BB0575BB8575FF016F
:1043300075D5022029077F3FFEF17FF18D75FF01C2
:1043400043D52030290261E4E4F5FF538EF7438E14
:10435000077D04E4F5FF8DBCF5FF43B102E5B13004
:10436000E2FBE4F5FFAFDFEFFEACDEECFBEBFFEDD5
:1043700025E024CAF582E4342B7116E4F5FFF5FF3D
:1043800053B1FD0DEDB40CCB902BCC911EFF7809F1
:1043900012204CA3EEF0A3EFF0E4FDED25E024D4D1
:1043A000F582E4342BF583E0C313FAA3E013FBF1A9
:1043B00043F5831260922BFFEE3AFEF1437116ED46
:1043C000240490120DF0EDC394075018CFEDCF0DDB
:1043D000EFF1441248C7FFC3902BD1E09F902BD040
:1043E000E09E50B7E4F5FF758EC8F5FF90120DE022
:1043F000F5BCE4F5FF75BB8075FF01F5D522E0FB48
:1044000025E025E02401F582E43412F5831220E949
:10441000EB25E025E02401F582E43412F583E0FC8D
:10442000A3E0FDA3E0FEA3E022902B481220E99038
:104430002B587401F0E4A3F0F1A975FF02E5E63012
:10444000E00E902B597401F0FB7A2B795912572604
:10445000902B631220F5002DC6C0E4F5FFF5A49063
:10446000120FF0902B5A7402F075FF03902B5AE054
:10447000FFF595EF14601314601C24027027902B35
:1044800048911EF1CD902B548016902B4C911EF12B
:10449000CD902B55800A902B50911EF1CD902B562C
:1044A000E0902B67F0125AE4902B67E070051262DF
:1044B00027806590120EE004F0902B5A12625C90F7
:1044C0002B59E0701B902B63911E902B5F125B9217
:1044D000C312203B500A902B5F911EFFA31220E9CC
:1044E000902B67E0FF125801902B57E0FF902B5A5A
:1044F000E0FDA22D922A125A92902B59E0700F9053
:104500002B5F911EF1E9902B5AE0FF125AF1902B8C
:104510005AE09111FF12576D126309600281699090
:104520002B59E07047A37402F075FF03902B5A12C9
:10453000634A7013902B63F112780112204C902B78
:104540005A71FEFF12576D12630970DD902B639153
:104550001E2420FFEE344EF134E4FB7A04F9F8F126
:1045600022780112204C902B5B1220E9125D8440CE
:104570000343F420A22D922B1259C4902B59E0240E
:10458000FF9229902B5B911EFFF1D4E4F5FF75E5B6
:1045900008125D77E59B30E7FBF16B75FF0143D5B2
:1045A000047FC87E00123F5ED1ECF1847B017A2B40
:1045B00079581257A990120EE0B40103125C529080
:1045C0002B58E0B40103D38001C322902B68122042
:1045D000E9F1A9902B7D1220F5002DC6C0E4F5FF6E
:1045E000F5A490120EF0A3F0902B787402F075FFF2
:1045F00003902B78E0FFF595EF14601314601C24F2
:10460000027027902B68911EF13C902B74801690BD
:104610002B6C911EF13C902B75800A902B70911E93
:10462000F13C902B76E0902B81F0125AE4902B8194
:10463000E07005126227805590120EE004F0902B76
:104640007812625C902B7D911E902B79125B92C345
:1046500012203B500A902B79911EFFA31220E99063
:104660002B81E0FF125801902B77E0FFA3E0FDA221
:104670002C922A125A92A3911EF1E9902B78E0FF16
:10468000125AF1902B78E09111FF12576D126312BC
:104690006002A1EE7402F075FF03902B7812634A5A
:1046A0007018FF7E04FDFC902B7DF117780112201D
:1046B0004C902B7871FEFF12576D12631270D81256
:1046C0005D84400343F420A22C922B1259C4902BFA
:1046D0007D911E2420FFEE344EF134E4FB7A04F980
:1046E000F8F122780112204CC229F1D490121374EF
:1046F00001F07E127F01E4FD8F828E83EF2DF58223
:10470000E43EF583E0FC901213E02CF00DEDB412C2
:10471000E722FF7E04FDFCE0F8A3E0F9A3E0FAA3A2
:10472000E0FB121EEDE47B7DFAF9F8121F78EF240E
:1047300001FFE43EFEE43DFDE43CFC22FF902B79CA
:104740000220E9ED25E024D2F582E4342B2275FF26
:1047500003D3EF9402EE9400400874FE2FFF74FF21
:104760003EFEEFF592EE540FF59122E4F5FF758EC3
:10477000C8F18D75FF0153D5FBF1E27F147E00F186
:104780004E123F5775FF03E59120E7FB22E4F5FF4A
:1047900075C2E17F1E12571E30E707E4F5FF75C2B0
:1047A000A122E4F5FF75C2812275FF0243E1801268
:1047B00052C81262D653DB7F75FF0175D502F17BBB
:1047C0001262D643DB8075FF01E4F5D522FF902B02
:1047D0005F0220E9711EE4F5FFE5BD54F84404F5DD
:1047E000BD2275FF03E4F59122FF90301E0220E9FF
:1047F00090300EEEF0A3124FAB7FFFA3E0F9E9C3B8
:10480000940C5023E9112AE0FCA3E04C7016AF0190
:1048100090300EE0FCF1DFA3E090300DF01242CEBC
:10482000E904FF220980D722E56375F007A4241F5D
:10483000F582E43429F58322E490316CF090000095
:10484000E0606890316CE0FF04F0EFC39405505BCA
:10485000900000E014F0E4F563E563C3940C50DDD0
:104860001128E0FEA3E04E603E112812620470376A
:1048700011ACF583E0FF600AF4600711ACF583E04A
:1048800014F011ACF583E0600EE56311F711C7FF7A
:104890001128EEF0A3EFF011BA4E600811BAAA0683
:1048A000F91222851236B1056380AE22E56375F0F8
:1048B00007A42425F582E4342922E56375F007A4D2
:1048C0002423F582E43429F583E0FEA3E022902E30
:1048D000E0F07E1B7F157BFF7D649030127402F048
:1048E0000247F0311F500C11F6F1D8EF112AE4F015
:1048F000A3F00EAF0622EF75F007A42421F582E4A1
:10490000342922311F501511F6F583E0FCA3E0FD98
:104910004C6009EF112AECF0A3EDF00EAF0622E493
:10492000FE1FEFC3940C22E490052FF07B017A0563
:10493000793E121C6BFF11E3E4021D06900547123D
:104940002152D223C2EBE514600261AFE51530E2DB
:1049500002C32271B8914CE4121D061252E591086F
:104960005407FF90051EF01251A290054AEFF0E5A2
:104970001520E07D916640057F011236C590054AFD
:10498000E0FF7B017A05794B123F63E43371B7E9AD
:1049900024E6F9E43AFA7401121CB1EF7004D2EB88
:1049A000618E90054AE02498126342E0FF90054B27
:1049B000E0D39F403CD2EB125266A21092ED9005DC
:1049C0002FE0601071B8914C7401121D064315045C
:1049D0003127D32290053EE070157B017A05793EA0
:1049E0007C507D3C902F0D7464F0E4A3F0916EC375
:1049F0002291665005C22F123D67125243E5D12025
:104A0000E0FBE4F510C21191085407C39403E49449
:104A100000503071B8E924B1910171B7E924D891FF
:104A2000012FFFE433FED3EF9440EE648094804086
:104A30001271B8914C7402121D06431504A2109213
:104A4000EDD32271B8E92408F9E43ACFE9CFF511A2
:104A50008F1271B8E924B19101F516AE1112564EBC
:104A600071B8E924B2F9E43A8B1CF51D891E71B8BE
:104A7000E924D89101F51F9108FDACF05460603035
:104A800071B8E924D99101FF125208C22371F1FBD8
:104A90007A0090053F12633A7D18121D3AEF2BFF02
:104AA000EA3EFEEF2414FBE43EFA7D027F01617DC5
:104AB0009108540790051EF075140871B8E924B2E6
:104AC000F9E43AFA91BB71B8E924D89101FFAD1627
:104AD00012566A90051EE0640370237B01FD71C1CC
:104AE000915450057401121CB1E4F5FF12631B12BE
:104AF0001C6B2428FBE433FA7D03E4FF807F9005E0
:104B00001EE06402702571BE9154400574FF121CB2
:104B1000B1E4F5FFE5D25480440AF5D2121C6B24AF
:104B200014FBE433FA7D027F018052E471BE91549C
:104B3000400574FF121CB1E4F5FF9108441045F0E4
:104B40007F0560027F0AEF547FFFE5D254804FF566
:104B5000D2E4F5FF43D28071F1FD7C00910844104E
:104B600045F07E0060047F0A80027F05EF25E0FFAC
:104B7000EE33FEEF2DFBEE3CFA7D017F0112531365
:104B80009108FFAEF0A22392221250E34006A21039
:104B900092EDC322312790054AE071B7E924E8F984
:104BA000E43AFAEF121D06A21092EDD2EBD322A244
:104BB0001092EDD2EBC322FF900547022132FB7D1C
:104BC00001FF9118900547122132E924B1F9E43A26
:104BD000FA121C6BFF900547122132E924D8F9E440
:104BE0003AFA121C6B2FFFE433FEEF2401FFE43E80
:104BF000FE900547122132E924B2F9E43AFAE92499
:104C000007F9E43AFA021C6B900547122132E924B5
:104C100004F9E43AFA021E03E4F5FF75D102E5D186
:104C200020E0FBE4F5FFF5D1EF6008E4F5FF43D2A7
:104C3000808006E4F5FF53D27FEB6006E4F5FF4386
:104C4000D104ED6006E4F5FF43D10822E924E5F93B
:104C5000E43AFA22D39FEE6480F874809822C2EB83
:104C6000A2ED9210C2EDE5F4C330E701D322902FFC
:104C700008122152902F081221323132AE04AF05B2
:104C8000902F0DE0FDA3E0FB91B3902F0891A89029
:104C90002F0891A2B4FF04E4121D06902F0891A2E0
:104CA000FF22122132021C6B122132EF021D06E498
:104CB000FB7D01E4903012F00247F0E4F5FFE912C9
:104CC0005645EA540F42D62291665004F1D1400372
:104CD000301103D38001C32290051FE0FDFFC37490
:104CE0000E91FFEFC4F8540FC868FFEEC454F048AB
:104CF000FEE51754F0C391557F005002AF05229F87
:104D0000FFE49400FE22903088EDF0901211E0F460
:104D10006005A3E0B4FF0C90308A7418F0A37413FC
:104D2000F08010901211E090308AF0901212E09012
:104D3000308BF0121C6B64016002C170903088E00F
:104D4000FE64086004EEB404089030897428F08092
:104D500006903089743AF0EF124411FF122017E4E4
:104D6000D171EF24D8FFEE343FFEED3493FDEC34E7
:104D700016FC7B007A80790378001227E41259B779
:104D800090308BE0FF90308AE0C391FFE4FCFD128D
:104D90001EEDECC0E0EDC0E0EEC0E0EFC0E0903012
:104DA0008BE0FFE4FCFDFED171D0E0FBD0E0FAD057
:104DB000E0F9D0E0F8EB2FFBEA3EFAE93DF9E83CF8
:104DC000F8903089E0FFE4FCFDFE121EEDEF245464
:104DD000FFEE340B124734E47BA87A16F9F8122759
:104DE000E4CBEFCB903088E014605D14601B24FEB0
:104DF000600C24FC707AE4F5FF75CE318006E4F592
:104E0000FF75CE21F5FF8BCF22E4FAE4F5FFEA240B
:104E100040F5CEE4F5FFEAFFC3740791FF74C32F9A
:104E2000F58274283EF583E4D179C39DF5CFE4F58E
:104E3000FFEA2448F5CEE4F5FFEA9028C3D1792DA6
:104E4000F5CF0AEAB408C422E4F5FF75CE01F5FFF8
:104E50008BCFF5FF75CE0EF5FFEB25E0F5CFE4F532
:104E6000FF75CE0FF5FFCFEBCFEB75F003A4F5CFB9
:104E7000227B64FAF9F8021EED9325E0FDE433FC91
:104E8000EB75F010A4FFAEF0121D4CCDEFCDEBFF93
:104E9000E4C313EF1322902F24F1AB902F2A740157
:104EA000F0C22E123F50123F455005E5FC20E6F6B9
:104EB000125DF3BF0108E4F5FC75FC408008125D4B
:104EC000F3BF0202D322F1E6902F25E0FF125DBE70
:104ED00075FF0153D5DF53FAFB902F24E0FF123EFC
:104EE00066902F25E0902F24B4080BE01244112483
:104EF000521247318005E0124411FF12576D902F76
:104F000026E0FFF1CB75FF0175FF03759B04123F8F
:104F10005075FC42E5FC20E105123F4540F3902F1F
:104F200027E0F075FF03E59B20E705123F4540F3BE
:104F3000E59B20E70D75FF03759B1F1252C8D22E0B
:104F4000804EF1A4125726902F25E0FD90120FE01D
:104F50005D701C902F24E0FFF1A4B10690120FE0C9
:104F6000FF902F25E0FEEF4E90120FF01246EC124C
:104F7000478D7B017A2F7928F1B4500FC3902F29E8
:104F8000E09420902F28E0940340E7F1A41257A961
:104F9000124784302E02C19B902F2AE0B40103D324
:104FA0008001C3227B017A2F792A22EFF0A3EDF052
:104FB000A3EBF02212570AAD94EF4D1257168FF063
:104FC000121EB3E591C330E701D32275FF018FDADA
:104FD00022E5F754E024FF22F583E4F0A3F022A3B6
:104FE000E0FDA3E0FB2275FF0153D8EF22A2AD92B2
:104FF00021C2AD902973E0FEA3E0FFA22192AD2271
:10500000AD07AC06124FEDC3EF9DEE9C4008EF9D3F
:10501000FFEE9CFE8013EDF4FDECF4FCED2401FDAD
:10502000E43CFCED2FFFEC3EFE229003C6E0FEA325
:10503000E0FF1100D3EF94C8EE940022E490053E07
:10504000F090052F04F022AF14EFC36001D322EFDC
:10505000C3940E500590051FEFF022E517540FFF83
:1050600022E517C394F0501F5317F0118AFE740FF6
:10507000C39F4005EE940E400543170D8003EF4299
:1050800017E517540FFF227F0022E517C4540FFEC7
:10509000EF90287E932E22118AFFC3940E40027F48
:1050A0000DEF90286093FF22EF30E303AF1322ADA2
:1050B0001B201204EE30E00CE517C394F0502112CF
:1050C0004CD88018E5196006FDE4F5198012E51743
:1050D000C394F0500BE517540FFF60041197AD0710
:1050E000AF05224315015315DF11A831524004E4E6
:1050F000F5142243FA045315FB302205123E5C805E
:105100000A7F55310D7F55310DD2EBD32275FF014A
:10511000E5D520E602C322E5FA540360FA75FF01E3
:105120008FC3D322CEEFCE75FF01E5D520E602C3B3
:105130002243FA04E4FDEDC39E50077F55310D0D67
:1051400080F4E5FA543070047F0F80027FF0310D57
:10515000D322900550EFF090051EE0FF31A290059C
:1051600051EFF090051EE024FD60130470089005D7
:105170004F7404F0800E90054F7408F0800690057F
:105180004F7402F07F01121AB1900551E0FF9005B3
:105190004FE0FDA3E0FBE4902F27F0124E9650E97C
:1051A000D322EF24FD600680007E018002E4FEAF82
:1051B0000622E51754F0C4540F2FFFC39410400289
:1051C0007F0FEF90286E93FF227E10EE60091EEE97
:1051D00090286E93B507F4EEC3940E40027E0DEE58
:1051E00090286093FF22E4F51402379BC2AFEF4290
:1051F00015D2AF22EF24FE600C24FE600580007FF4
:1052000001227F02227F0322751401751A13900573
:1052100030EFF090051E7402F0ED90053F30E50789
:10522000E4F0A3743AF022E4F0A374E6F022E5156A
:1052300020E50CC22F123D675143E5D120E0FBE48D
:10524000F51022E4F5FFE5D154FE4402F5D12251D8
:10525000585004E4123A3A22C3900524E094FF9097
:105260000523E094FF22C3900526E094FF900525D6
:10527000E094FF5004E4123A3A2251E57F02121AF8
:10528000B17F01123E82900563EFF0BF02028014ED
:10529000900563E0B43312E4F07F01123E82BF0256
:1052A0000D9005637401F08005E4900563F09005AE
:1052B00063E0700D124C665005C22F123D67123725
:1052C000CB900563E024FF22E5FA30E1FB75FC801A
:1052D00075FF0153D5EFE4F5FC75FC401247E2E59C
:1052E000FC20E6FB2290121EE0F4FFA3E06FFFA378
:1052F000E06FFFA3E06FFF644A6009EF640A600497
:10530000EFB455010F90051DEFF02290053FE0A38B
:10531000E0FF22900555EFF0ED24FE6019146026A1
:105320002402703BEB2402FFE43AFE7C007D501225
:105330001D3A7D60801E7187C333CE33CED8F9FF0E
:105340007C007D28800E7187C333CE33CED8F9FF21
:105350007C007D64121D4C900556EEF0A3EFF0909A
:105360000555E07192C083C0821220A8900557E0D5
:105370002401FF900556E03400FEE4FCFD121ED22D
:10538000D082D0830220E9EB2401FFE43AFEEF78DB
:10539000032225E025E02431F582E43405F583225B
:1053A000EF719212208C022072E490053171C0E4FA
:1053B00090053571C7E4FFFEFDFC9005390220E938
:1053C000FFFEFDFC0220E9FFFEFDFC0220E9A2EB4E
:1053D0009225C2EB7A0579237B017D0CE4FF12193B
:1053E00058A22592EB22A2EB9226C2EBEBC0E0EA98
:1053F000C0E0E9C0E07A057923910ED0E0F9D0E071
:10540000FAD0E0FB7F0C121980A22692EB227B01DE
:10541000902F360221527F017E009017FCE4935EAC
:10542000FE7401935F4E24FFB32290000174019338
:10543000B40007E493B41802C322D322EF600775C7
:10544000FF0243E6102275FF0253E6EF22EF7011D0
:10545000ED600775FF0143AE012275FF0153AEFEFB
:1054600022EFB40114901232EDF0600775FF014392
:10547000AE022275FF0153AEFD2275FF02E5E63054
:10548000E2037F0322E5E630E3037F0022E5E63016
:10549000E1037F0422E5E67F0530E0027F0122EF91
:1054A000600775FF0253E6BF2275FF0243E6402204
:1054B000EF14600F146014240270188B8075FF01C4
:1054C0008DFD228B9075FF018DC9228BA075FF0188
:1054D0008DCA22AF038FB075FF01AF058FCB22902D
:1054E0002F10122152EF1460111460182402701E44
:1054F000B119E580B11FE5FD801CB119E590B11F20
:10550000E5C98012B119E5A0B11FE5CA8008B1193B
:10551000E5B0B11FE5CB021D06902F130221321218
:105520001D0675FF01902F10022132E4F5FFAF91A7
:1055300022E4F5FFAF9222902C80E0121D06902C01
:1055400085E0900001121D18902C86E09000020268
:105550001D18FEAF01E4FDAB05E4FCFD90301CEB33
:10556000F0022F5D902A8E1220E9902A9212215289
:10557000E4902AB5F0D3902A96E0941E902A95E004
:1055800094004001227B017A2A7997902A95E0FFC6
:10559000A3E0902E65CFF0A3EFF0902A8E12208C1E
:1055A000122E2E902A92122132E94A6008902AB5D2
:1055B000B1E0FF80027F00902AB5E02497F582E4F5
:1055C000342AF583E06F6002C322902AB5E004FF1D
:1055D000F0D3902A96E09F902A95E0940050C42240
:1055E000E0F582758300021C84902F1FB1FFC00775
:1055F000902F1F122132902F22D106D007A16412C2
:105600002152E4FCFD22E0FFA3E0902A95CFF0A315
:10561000EFF022E4FF022FB0902C82E0FF22E49012
:105620002C82F022E4F5FF75D102E5D120E0FBE405
:10563000F5D1F5FFEFD145EE540F42D6E4F5FFCF9B
:10564000EDCF8FD422F5D7E4F5FF53D6F022E4F561
:10565000FFEFF5D8E4F5FF53D60FEE540FC4F8541E
:10566000F0C8E4C4540F4842D622E4F5FF8FD4F5C5
:10567000FFCFEDCF8FD522E4F5FF8FD422E4F5FFE5
:10568000E5D1540133333354F8FFE4F5FFE5D35447
:10569000074FFF2290307CEEF0A3EFF07B017A30D1
:1056A000797E124FB4501490307EE0FEA3E0FF905C
:1056B000307DE09F90307CE09E400B90307CE0FE9F
:1056C000A3E0FF12474E22CDEFCDCCEECCF10AABDA
:1056D00094EF4BF116CBEFCBFAE59130E71DF10DCE
:1056E000A994E9F582EF4582FFEB2DF582EA3CF5BE
:1056F00083C3EF9582E5F0958340DEE59120E709CD
:10570000CEECCECFEDCF12477F2275FF03AF93EFE4
:1057100075F010A4FF2224FBFFE5F034FF22FED138
:10572000C790120FE0229030D4F15AE9F07F017C4B
:10573000127D01E4FE8D828C83ED2EF582E43CF532
:1057400083E02FFF0EEEB412EC901213E06F6009AD
:105750009030D4F164E4121D0622EBF0A3EAF0A32A
:105760002290308DE0FBA3E0FAA3E0F92290308094
:105770001220E975FF01903080A3E0FDA3A3E4FFB0
:10578000FEE4FC781012204C8FE1903080A3A3E05F
:10579000FEA3E4FFE4FDFC780812204C8FE2903079
:1057A00080A3A3A3E0FF8FE322C22875FF03759BAC
:1057B0001F75FF0390120FE020E71BE59A540FC3FB
:1057C00094024012E04480F0E4F5FF75C2A143FC6E
:1057D0000475FF03D228E5FC30E609E59A540FC3AF
:1057E000940540CDE5FC30E611E4121D0675FC8001
:1057F000F5FC75FC40E5FC20E6FB3028031246EC86
:1058000022EF30E00E43F401E4F5FF43A404F5FF7A
:10581000759624EF30E10E43F401E4F5FF43A4084C
:10582000F5FF759624EF30E20943F402E4F5FF75C5
:10583000961EEF30E30943F404E4F5FF7596107506
:10584000FF01EF5403600475D7122275D72D22E4AF
:10585000F5FF7584E6F5FF439404F5FF759814226F
:10586000902E0012575AE9F0902E061220F50000F3
:105870000001902E0A7401F0F5FFE5D554C07005C3
:10588000124C665002C322E4F5FF53967F75FF0168
:1058900075D5047F3FFE12477F75FF0143D508E4AD
:1058A000F5FF5394FBF5FF53847FF5FF7598FF9048
:1058B0002E04E5F4F075F49C75FF01A3E5E4F075A2
:1058C000E4257B017A2E790A125726902E0AE0648D
:1058D000016002218FF5FF902E037414F0902E06C4
:1058E00012441EFF780112205F902E061220E9E577
:1058F000A730E1FB43A702902E0612441EFFE5A746
:1059000030E005E47B018002E4FBFAF9F8EF4BFF9D
:10591000EE4AFEED49FDEC48FC902E061220E9907F
:105920002E03E014F070B6902E0612441EFF78107D
:1059300012204C7B6D7A4E79C67841121EEDEF2411
:1059400039FFEE3430124734E4FBFA7901F8121FC4
:1059500078EE547FFEE4FDFC31B7902E0612441E13
:10596000FFEB6FFFEA6EFEE8CDEFCDCCEECCECFFA7
:10597000902E00125764EF121D06902E00125764ED
:1059800031B090120FE030E606E4F5FF75968075B1
:10599000FF01E4F5D5902E04E0F5F475FF01A3E0D6
:1059A000F5E4114F902E0AE0B40103D38001C32225
:1059B000900001ED021D18C8ECC8C9EDC9CAEECAB5
:1059C000CBEFCB22E4F5FF75933F75FF03759A404B
:1059D000114FE4F5FF759C93F5FF75A1A3F5FF75D5
:1059E0008531F5FF758628E5FA54304480F5FA755F
:1059F000FF0175E74A75FF0275DF4975FF0143D363
:105A00000475FF0153D367E4F5FF53E6BF75FF014B
:105A100075D825F5FF75B503F5FF75B215F5FF755A
:105A2000BA02F5FF75AFB3F5FF75CD0AF5FF75CB7B
:105A300008F5FF75CA12F5FF75BF0EF5FF75CC9618
:105A4000F5FFF5BDF5FF75C281F5FF75AEE1F5FF18
:105A500075DA55F5FF75F580F5FF75E903F5FF7506
:105A6000E933F5FF75972A75FF01759B42759CA474
:105A7000759D29759E48759F2475A11275A3127591
:105A80009AF8202B0CF5FF43968090120FE04440CB
:105A9000F022CCEFCCCFEDCF74017E00C8EFC80868
:105AA0008005C333CE33CED8F9FFCDECCDEF5D60AA
:105AB0001B302A1875FF0175DCAD75FF0175DDCD52
:105AC000E4F5FF759A74F5FF7594842275FF0175EE
:105AD000DC5375FF0175DD33E4F5FF759A14F5FFAE
:105AE0007594042275FF0175E46575FF0175D6474D
:105AF0002290301DEFF0E4A3124712780112204CDF
:105B000090301DE0FB71841220E9901210E0648057
:105B10006071E0C3947F5039EB7184C083C08212FE
:105B2000441EFFEEC0E0EFC0E0901210E075F004FC
:105B3000A4AEF0FBCAEECAEA3395E0F9F8D0E0FF74
:105B4000D0E0FEC3EF9BFFEE9AFEED99FDEC98804E
:105B50002A90301DE07184C083C08271939012102E
:105B6000E0F40475F004A4FFAEF0EE3395E0FDFC24
:105B7000EB2FFFEA3EFEE93DFDE83CFCD082D083FE
:105B80001220E92225E025E02401F582E43412F513
:105B90008322FFE0F8A3E0F9A3E0FAA3E0FB22E40C
:105BA000903084F0A304F0E4903087F0E5FA30E11F
:105BB000FB75FF01E5D530E7037F0022E4F5FF75B3
:105BC000E508124FE6E5D530E61A75FF01903086FC
:105BD000E5DAF0E4F5DA75FF01E5D630E3FB903065
:105BE000877401F0B177E59B30E7FBE4FB75FF03B9
:105BF0008B95124410FF12576D0BEBB403EF75FF3A
:105C00000375958012476B75FF0143D5049030876B
:105C1000E070081247E27FC812477D7B017A307935
:105C2000851257A9903085E09030847006E04404D6
:105C3000FF8002E0FF903084EFF090120EE0B4019C
:105C400002915275FF01903086E0F5DA903084E0E1
:105C5000FF2275FF0143D81022C21BE49030D7F019
:105C6000C21CA3F0A3F075FF01E5D520E702C32213
:105C7000C230B120201B02A11153F4DF9030D7E0D5
:105C8000FF123E669152301C0543F440800353F4EA
:105C9000BFE4F5FF53F5F09030D8E0FAA3E0FBEA5B
:105CA00042F5EBF5F6D230B1207FC87E00123F5EA0
:105CB000E4F5FFE59320E605123F4540F3301C5E16
:105CC000E5F430E3047D288010E5F430E2047D281B
:105CD0008007E5F430E1027D281247E27F287E004C
:105CE000123F5E123F4540FB7F787E00123F5E12FE
:105CF0003F45502AB14150F7B168EFC39D50F0B114
:105D00004150ECE5F720E5E7C230B1201247E280D0
:105D1000DE53F4BFB18A400643F420124FE6D3228B
:105D2000AFF4EF547FF5F4303005EF4480F5F475AF
:105D3000FF01E5D520E702C322E5F4D330E601C335
:105D40002275FF01E5E43322E4FFE5F754C0600269
:105D5000801675FF01E5D530E30DB14150F4B1680F
:105D6000EF60EFB14150EB22B16DAFD92275FF0169
:105D7000E4F5EA75EAFF2275FF03759B0475FC41A3
:105D800075FF032275FF0375958090120EE0D39482
:105D90000122E5FA5430FFBF30037F0822E5FA54B0
:105DA00030FFBF20037F0422E5FA5430FFBF100309
:105DB0007F0222E5FA54307F0070027F012275FFD6
:105DC00001E5D530E602C32253FACFEFB40805430C
:105DD000FA308012EFB4040543FA208009EFB402D0
:105DE0000543FA108000D322E5F45418131313541A
:105DF0001FFF227FFA7E00123F5EE5FC30E60512AF
:105E00003F4540F6E5FC30E6037F032275FF01E5E0
:105E1000D530E6037F0222E5D57F0030E7027F011F
:105E200022E5F75406FFBF06037F0822E5F7540674
:105E3000FFBF04037F0422E5F75406FFBF02037F80
:105E400002227F0122E5F730E510E5F754C0700526
:105E5000123F4540F01247E2C322D322E5F7132256
:105E6000E5F754C024FF22EFB40109D2AD75FF015C
:105E700043AE4022C2AD75FF0153AEBF2275C801CB
